{
  "_format": "hh-sol-artifact-1",
  "contractName": "Counter",
  "sourceName": "contracts/Counter.sol",
  "abi": [
    {
      "inputs": [],
      "name": "count",
      "outputs": [],
      "stateMutability": "nonpayable",
      "type": "function"
    },
    {
      "inputs": [],
      "name": "getCounter",
      "outputs": [
        {
          "internalType": "uint256",
          "name": "",
          "type": "uint256"
        }
      ],
      "stateMutability": "view",
      "type": "function"
    }
  ],
  "bytecode": "0x608060405234801561001057600080fd5b50610373806100206000396000f3fe608060405234801561001057600080fd5b50600436106100365760003560e01c806306661abd1461003b5780638ada066e14610045575b600080fd5b610043610063565b005b61004d6100fa565b60405161005a91906101f7565b60405180910390f35b60008081819054906101000a900463ffffffff168092919061008490610251565b91906101000a81548163ffffffff021916908363ffffffff160217905550506100f86040518060400160405280600f81526020017f436f756e746572206973206e6f7720000000000000000000000000000000000081525060008054906101000a900463ffffffff1663ffffffff16610119565b565b60008060009054906101000a900463ffffffff1663ffffffff16905090565b6101b1828260405160240161012f92919061030d565b6040516020818303038152906040527fb60e72cc000000000000000000000000000000000000000000000000000000007bffffffffffffffffffffffffffffffffffffffffffffffffffffffff19166020820180517bffffffffffffffffffffffffffffffffffffffffffffffffffffffff83818316178352505050506101b5565b5050565b60008151905060006a636f6e736f6c652e6c6f679050602083016000808483855afa5050505050565b6000819050919050565b6101f1816101de565b82525050565b600060208201905061020c60008301846101e8565b92915050565b7f4e487b7100000000000000000000000000000000000000000000000000000000600052601160045260246000fd5b600063ffffffff82169050919050565b600061025c82610241565b915063ffffffff820361027257610271610212565b5b600182019050919050565b600081519050919050565b600082825260208201905092915050565b60005b838110156102b757808201518184015260208101905061029c565b60008484015250505050565b6000601f19601f8301169050919050565b60006102df8261027d565b6102e98185610288565b93506102f9818560208601610299565b610302816102c3565b840191505092915050565b6000604082019050818103600083015261032781856102d4565b905061033660208301846101e8565b939250505056fea2646970667358221220616a41419741927bdeb2291427f738e8b88a1f7844c89b7e6171a0ea42da180564736f6c63430008110033",
  "linkReferences": {},
  "deployedLinkReferences": {}
}